{
  "contractName": "KryptoBird",
  "abi": [
    {
      "inputs": [],
      "stateMutability": "nonpayable",
      "type": "constructor"
    },
    {
      "anonymous": false,
      "inputs": [
        {
          "indexed": true,
          "internalType": "address",
          "name": "from",
          "type": "address"
        },
        {
          "indexed": true,
          "internalType": "address",
          "name": "to",
          "type": "address"
        },
        {
          "indexed": true,
          "internalType": "uint256",
          "name": "tokenId",
          "type": "uint256"
        }
      ],
      "name": "Transfer",
      "type": "event"
    },
    {
      "inputs": [
        {
          "internalType": "address",
          "name": "_owner",
          "type": "address"
        }
      ],
      "name": "balanceOf",
      "outputs": [
        {
          "internalType": "uint256",
          "name": "",
          "type": "uint256"
        }
      ],
      "stateMutability": "view",
      "type": "function",
      "constant": true
    },
    {
      "inputs": [
        {
          "internalType": "uint256",
          "name": "",
          "type": "uint256"
        }
      ],
      "name": "kryptoBirdz",
      "outputs": [
        {
          "internalType": "string",
          "name": "",
          "type": "string"
        }
      ],
      "stateMutability": "view",
      "type": "function",
      "constant": true
    },
    {
      "inputs": [],
      "name": "name",
      "outputs": [
        {
          "internalType": "string",
          "name": "",
          "type": "string"
        }
      ],
      "stateMutability": "view",
      "type": "function",
      "constant": true
    },
    {
      "inputs": [
        {
          "internalType": "uint256",
          "name": "_tokenId",
          "type": "uint256"
        }
      ],
      "name": "ownerOf",
      "outputs": [
        {
          "internalType": "address",
          "name": "",
          "type": "address"
        }
      ],
      "stateMutability": "view",
      "type": "function",
      "constant": true
    },
    {
      "inputs": [],
      "name": "symbol",
      "outputs": [
        {
          "internalType": "string",
          "name": "",
          "type": "string"
        }
      ],
      "stateMutability": "view",
      "type": "function",
      "constant": true
    },
    {
      "inputs": [
        {
          "internalType": "string",
          "name": "_kryptoBird",
          "type": "string"
        }
      ],
      "name": "mint",
      "outputs": [],
      "stateMutability": "nonpayable",
      "type": "function"
    }
  ],
  "bytecode": "0x60806040523480156200001157600080fd5b506040518060400160405280600a81526020017f4b727970746f42697264000000000000000000000000000000000000000000008152506040518060400160405280600381526020017f4b425a00000000000000000000000000000000000000000000000000000000008152508181816000908162000091919062000328565b508060019081620000a3919062000328565b50505050506200040f565b600081519050919050565b7f4e487b7100000000000000000000000000000000000000000000000000000000600052604160045260246000fd5b7f4e487b7100000000000000000000000000000000000000000000000000000000600052602260045260246000fd5b600060028204905060018216806200013057607f821691505b602082108103620001465762000145620000e8565b5b50919050565b60008190508160005260206000209050919050565b60006020601f8301049050919050565b600082821b905092915050565b600060088302620001b07fffffffffffffffffffffffffffffffffffffffffffffffffffffffffffffffff8262000171565b620001bc868362000171565b95508019841693508086168417925050509392505050565b6000819050919050565b6000819050919050565b60006200020962000203620001fd84620001d4565b620001de565b620001d4565b9050919050565b6000819050919050565b6200022583620001e8565b6200023d620002348262000210565b8484546200017e565b825550505050565b600090565b6200025462000245565b620002618184846200021a565b505050565b5b8181101562000289576200027d6000826200024a565b60018101905062000267565b5050565b601f821115620002d857620002a2816200014c565b620002ad8462000161565b81016020851015620002bd578190505b620002d5620002cc8562000161565b83018262000266565b50505b505050565b600082821c905092915050565b6000620002fd60001984600802620002dd565b1980831691505092915050565b6000620003188383620002ea565b9150826002028217905092915050565b6200033382620000ae565b67ffffffffffffffff8111156200034f576200034e620000b9565b5b6200035b825462000117565b620003688282856200028d565b600060209050601f831160018114620003a057600084156200038b578287015190505b6200039785826200030a565b86555062000407565b601f198416620003b0866200014c565b60005b82811015620003da57848901518255600182019150602085019450602081019050620003b3565b86831015620003fa5784890151620003f6601f891682620002ea565b8355505b6001600288020188555050505b505050505050565b61120b806200041f6000396000f3fe608060405234801561001057600080fd5b50600436106100625760003560e01c806306fdde03146100675780636352211e1461008557806370a08231146100b557806393ab6e56146100e557806395d89b4114610115578063d85d3d2714610133575b600080fd5b61006f61014f565b60405161007c9190610889565b60405180910390f35b61009f600480360381019061009a91906108f5565b6101e1565b6040516100ac9190610963565b60405180910390f35b6100cf60048036038101906100ca91906109aa565b610292565b6040516100dc91906109e6565b60405180910390f35b6100ff60048036038101906100fa91906108f5565b610349565b60405161010c9190610889565b60405180910390f35b61011d6103f5565b60405161012a9190610889565b60405180910390f35b61014d60048036038101906101489190610b36565b610487565b005b60606000805461015e90610bae565b80601f016020809104026020016040519081016040528092919081815260200182805461018a90610bae565b80156101d75780601f106101ac576101008083540402835291602001916101d7565b820191906000526020600020905b8154815290600101906020018083116101ba57829003601f168201915b5050505050905090565b6000806002600084815260200190815260200160002060009054906101000a900473ffffffffffffffffffffffffffffffffffffffff169050600073ffffffffffffffffffffffffffffffffffffffff168173ffffffffffffffffffffffffffffffffffffffff1603610289576040517f08c379a000000000000000000000000000000000000000000000000000000000815260040161028090610c51565b60405180910390fd5b80915050919050565b60008073ffffffffffffffffffffffffffffffffffffffff168273ffffffffffffffffffffffffffffffffffffffff1603610302576040517f08c379a00000000000000000000000000000000000000000000000000000000081526004016102f990610ce3565b60405180910390fd5b600360008373ffffffffffffffffffffffffffffffffffffffff1673ffffffffffffffffffffffffffffffffffffffff168152602001908152602001600020549050919050565b6008818154811061035957600080fd5b90600052602060002001600091509050805461037490610bae565b80601f01602080910402602001604051908101604052809291908181526020018280546103a090610bae565b80156103ed5780601f106103c2576101008083540402835291602001916103ed565b820191906000526020600020905b8154815290600101906020018083116103d057829003601f168201915b505050505081565b60606001805461040490610bae565b80601f016020809104026020016040519081016040528092919081815260200182805461043090610bae565b801561047d5780601f106104525761010080835404028352916020019161047d565b820191906000526020600020905b81548152906001019060200180831161046057829003601f168201915b5050505050905090565b6009816040516104979190610d3f565b908152602001604051809103902060009054906101000a900460ff16156104f3576040517f08c379a00000000000000000000000000000000000000000000000000000000081526004016104ea90610da2565b60405180910390fd5b6008819080600181540180825580915050600190039060005260206000200160009091909190915090816105279190610f6e565b506000600160088054905061053c919061106f565b90506105483382610583565b600160098360405161055a9190610d3f565b908152602001604051809103902060006101000a81548160ff0219169083151502179055505050565b61058d828261059a565b6105968161075b565b5050565b600073ffffffffffffffffffffffffffffffffffffffff168273ffffffffffffffffffffffffffffffffffffffff1603610609576040517f08c379a000000000000000000000000000000000000000000000000000000000815260040161060090611115565b60405180910390fd5b61061281610787565b15610652576040517f08c379a000000000000000000000000000000000000000000000000000000000815260040161064990611181565b60405180910390fd5b816002600083815260200190815260200160002060006101000a81548173ffffffffffffffffffffffffffffffffffffffff021916908373ffffffffffffffffffffffffffffffffffffffff1602179055506001600360008473ffffffffffffffffffffffffffffffffffffffff1673ffffffffffffffffffffffffffffffffffffffff16815260200190815260200160002060008282546106f491906111a1565b92505081905550808273ffffffffffffffffffffffffffffffffffffffff16600073ffffffffffffffffffffffffffffffffffffffff167fddf252ad1be2c89b69c2b068fc378daa952ba7f163c4a11628f55a4df523b3ef60405160405180910390a45050565b600481908060018154018082558091505060019003906000526020600020016000909190919091505550565b6000806002600084815260200190815260200160002060009054906101000a900473ffffffffffffffffffffffffffffffffffffffff169050600073ffffffffffffffffffffffffffffffffffffffff168173ffffffffffffffffffffffffffffffffffffffff161415915050919050565b600081519050919050565b600082825260208201905092915050565b60005b83811015610833578082015181840152602081019050610818565b60008484015250505050565b6000601f19601f8301169050919050565b600061085b826107f9565b6108658185610804565b9350610875818560208601610815565b61087e8161083f565b840191505092915050565b600060208201905081810360008301526108a38184610850565b905092915050565b6000604051905090565b600080fd5b600080fd5b6000819050919050565b6108d2816108bf565b81146108dd57600080fd5b50565b6000813590506108ef816108c9565b92915050565b60006020828403121561090b5761090a6108b5565b5b6000610919848285016108e0565b91505092915050565b600073ffffffffffffffffffffffffffffffffffffffff82169050919050565b600061094d82610922565b9050919050565b61095d81610942565b82525050565b60006020820190506109786000830184610954565b92915050565b61098781610942565b811461099257600080fd5b50565b6000813590506109a48161097e565b92915050565b6000602082840312156109c0576109bf6108b5565b5b60006109ce84828501610995565b91505092915050565b6109e0816108bf565b82525050565b60006020820190506109fb60008301846109d7565b92915050565b600080fd5b600080fd5b7f4e487b7100000000000000000000000000000000000000000000000000000000600052604160045260246000fd5b610a438261083f565b810181811067ffffffffffffffff82111715610a6257610a61610a0b565b5b80604052505050565b6000610a756108ab565b9050610a818282610a3a565b919050565b600067ffffffffffffffff821115610aa157610aa0610a0b565b5b610aaa8261083f565b9050602081019050919050565b82818337600083830152505050565b6000610ad9610ad484610a86565b610a6b565b905082815260208101848484011115610af557610af4610a06565b5b610b00848285610ab7565b509392505050565b600082601f830112610b1d57610b1c610a01565b5b8135610b2d848260208601610ac6565b91505092915050565b600060208284031215610b4c57610b4b6108b5565b5b600082013567ffffffffffffffff811115610b6a57610b696108ba565b5b610b7684828501610b08565b91505092915050565b7f4e487b7100000000000000000000000000000000000000000000000000000000600052602260045260246000fd5b60006002820490506001821680610bc657607f821691505b602082108103610bd957610bd8610b7f565b5b50919050565b7f4552433732313a206f776e65724f66206f776e657220717565727920666f722060008201527f6e6f6e2d6578697374656e7420746f6b656e0000000000000000000000000000602082015250565b6000610c3b603283610804565b9150610c4682610bdf565b604082019050919050565b60006020820190508181036000830152610c6a81610c2e565b9050919050565b7f4552433732313a2062616c616e63654f66206f776e657220717565727920666f60008201527f72206e6f6e2d6578697374656e7420746f6b656e000000000000000000000000602082015250565b6000610ccd603483610804565b9150610cd882610c71565b604082019050919050565b60006020820190508181036000830152610cfc81610cc0565b9050919050565b600081905092915050565b6000610d19826107f9565b610d238185610d03565b9350610d33818560208601610815565b80840191505092915050565b6000610d4b8284610d0e565b915081905092915050565b7f4572726f723a204b727970746f20426972642045786973747300000000000000600082015250565b6000610d8c601983610804565b9150610d9782610d56565b602082019050919050565b60006020820190508181036000830152610dbb81610d7f565b9050919050565b60008190508160005260206000209050919050565b60006020601f8301049050919050565b600082821b905092915050565b600060088302610e247fffffffffffffffffffffffffffffffffffffffffffffffffffffffffffffffff82610de7565b610e2e8683610de7565b95508019841693508086168417925050509392505050565b6000819050919050565b6000610e6b610e66610e61846108bf565b610e46565b6108bf565b9050919050565b6000819050919050565b610e8583610e50565b610e99610e9182610e72565b848454610df4565b825550505050565b600090565b610eae610ea1565b610eb9818484610e7c565b505050565b5b81811015610edd57610ed2600082610ea6565b600181019050610ebf565b5050565b601f821115610f2257610ef381610dc2565b610efc84610dd7565b81016020851015610f0b578190505b610f1f610f1785610dd7565b830182610ebe565b50505b505050565b600082821c905092915050565b6000610f4560001984600802610f27565b1980831691505092915050565b6000610f5e8383610f34565b9150826002028217905092915050565b610f77826107f9565b67ffffffffffffffff811115610f9057610f8f610a0b565b5b610f9a8254610bae565b610fa5828285610ee1565b600060209050601f831160018114610fd85760008415610fc6578287015190505b610fd08582610f52565b865550611038565b601f198416610fe686610dc2565b60005b8281101561100e57848901518255600182019150602085019450602081019050610fe9565b8683101561102b5784890151611027601f891682610f34565b8355505b6001600288020188555050505b505050505050565b7f4e487b7100000000000000000000000000000000000000000000000000000000600052601160045260246000fd5b600061107a826108bf565b9150611085836108bf565b925082820390508181111561109d5761109c611040565b5b92915050565b7f4552433732313a204d696e74696e6720746f20746865207a65726f206164647260008201527f6573730000000000000000000000000000000000000000000000000000000000602082015250565b60006110ff602383610804565b915061110a826110a3565b604082019050919050565b6000602082019050818103600083015261112e816110f2565b9050919050565b7f4552433732313a20546f6b656e20696420616c72656164792065786973747300600082015250565b600061116b601f83610804565b915061117682611135565b602082019050919050565b6000602082019050818103600083015261119a8161115e565b9050919050565b60006111ac826108bf565b91506111b7836108bf565b92508282019050808211156111cf576111ce611040565b5b9291505056fea26469706673582212201246e749a84b9c5e7e7149c2b8104a5b6721a00637de6b4db58abd32b74f807564736f6c63430008110033",
  "immutableReferences": {},
  "source": "// SPDX-Licence-Identifier: MIT\r\npragma solidity ^0.8.0;\r\n\r\nimport \"./ERC721Connector.sol\";\r\n\r\ncontract KryptoBird is ERC721Connector {\r\n    // Inherits the connector contract and passes name and symbol\r\n    constructor() ERC721Connector(\"KryptoBird\", \"KBZ\") {}\r\n\r\n    string[] public kryptoBirdz;\r\n    mapping(string => bool) _kryptoBirdExists;\r\n\r\n    function mint(string memory _kryptoBird) public {\r\n        require(!_kryptoBirdExists[_kryptoBird], \"Error: Krypto Bird Exists\");\r\n        kryptoBirdz.push(_kryptoBird);\r\n        uint256 _id = kryptoBirdz.length - 1;\r\n        _mint(msg.sender, _id);\r\n        _kryptoBirdExists[_kryptoBird] = true;\r\n    }\r\n}\r\n",
  "sourcePath": "C:\\Users\\deshm\\Desktop\\Learnings\\nft-marketplace\\smart_contracts\\contracts\\KryptoBirdz.sol",
  "compiler": {
    "name": "solc",
    "version": "0.8.17+commit.8df45f5f.Emscripten.clang"
  },
  "schemaVersion": "3.4.10",
  "updatedAt": "2022-11-10T12:34:17.857Z",
  "networkType": "ethereum",
  "devdoc": {
    "kind": "dev",
    "methods": {},
    "version": 1
  },
  "userdoc": {
    "kind": "user",
    "methods": {},
    "version": 1
  }
}